{
  "_format": "hh-sol-artifact-1",
  "contractName": "NFTMarket",
  "sourceName": "contracts/NFTMarket.sol",
  "abi": [
    {
      "inputs": [],
      "stateMutability": "nonpayable",
      "type": "constructor"
    },
    {
      "anonymous": false,
      "inputs": [
        {
          "indexed": true,
          "internalType": "uint256",
          "name": "itemId",
          "type": "uint256"
        },
        {
          "indexed": true,
          "internalType": "address",
          "name": "nftContract",
          "type": "address"
        },
        {
          "indexed": true,
          "internalType": "uint256",
          "name": "tokenId",
          "type": "uint256"
        },
        {
          "indexed": false,
          "internalType": "address",
          "name": "seller",
          "type": "address"
        },
        {
          "indexed": false,
          "internalType": "address",
          "name": "owner",
          "type": "address"
        },
        {
          "indexed": false,
          "internalType": "uint256",
          "name": "price",
          "type": "uint256"
        },
        {
          "indexed": false,
          "internalType": "bool",
          "name": "sold",
          "type": "bool"
        }
      ],
      "name": "MarketItemCreated",
      "type": "event"
    },
    {
      "inputs": [
        {
          "internalType": "address",
          "name": "nftContract",
          "type": "address"
        },
        {
          "internalType": "uint256",
          "name": "tokenId",
          "type": "uint256"
        },
        {
          "internalType": "uint256",
          "name": "price",
          "type": "uint256"
        }
      ],
      "name": "createMarketItem",
      "outputs": [],
      "stateMutability": "payable",
      "type": "function"
    },
    {
      "inputs": [
        {
          "internalType": "address",
          "name": "nftContract",
          "type": "address"
        },
        {
          "internalType": "uint256",
          "name": "itemId",
          "type": "uint256"
        }
      ],
      "name": "createMarketSale",
      "outputs": [],
      "stateMutability": "payable",
      "type": "function"
    },
    {
      "inputs": [],
      "name": "fetchItemsCreated",
      "outputs": [
        {
          "components": [
            {
              "internalType": "uint256",
              "name": "itemId",
              "type": "uint256"
            },
            {
              "internalType": "address",
              "name": "nftContract",
              "type": "address"
            },
            {
              "internalType": "uint256",
              "name": "tokenId",
              "type": "uint256"
            },
            {
              "internalType": "address payable",
              "name": "seller",
              "type": "address"
            },
            {
              "internalType": "address payable",
              "name": "owner",
              "type": "address"
            },
            {
              "internalType": "uint256",
              "name": "price",
              "type": "uint256"
            },
            {
              "internalType": "bool",
              "name": "sold",
              "type": "bool"
            }
          ],
          "internalType": "struct NFTMarket.MarketItem[]",
          "name": "",
          "type": "tuple[]"
        }
      ],
      "stateMutability": "view",
      "type": "function"
    },
    {
      "inputs": [
        {
          "internalType": "uint256",
          "name": "id",
          "type": "uint256"
        }
      ],
      "name": "fetchMarketItem",
      "outputs": [
        {
          "components": [
            {
              "internalType": "uint256",
              "name": "itemId",
              "type": "uint256"
            },
            {
              "internalType": "address",
              "name": "nftContract",
              "type": "address"
            },
            {
              "internalType": "uint256",
              "name": "tokenId",
              "type": "uint256"
            },
            {
              "internalType": "address payable",
              "name": "seller",
              "type": "address"
            },
            {
              "internalType": "address payable",
              "name": "owner",
              "type": "address"
            },
            {
              "internalType": "uint256",
              "name": "price",
              "type": "uint256"
            },
            {
              "internalType": "bool",
              "name": "sold",
              "type": "bool"
            }
          ],
          "internalType": "struct NFTMarket.MarketItem",
          "name": "",
          "type": "tuple"
        }
      ],
      "stateMutability": "view",
      "type": "function"
    },
    {
      "inputs": [],
      "name": "fetchMarketItems",
      "outputs": [
        {
          "components": [
            {
              "internalType": "uint256",
              "name": "itemId",
              "type": "uint256"
            },
            {
              "internalType": "address",
              "name": "nftContract",
              "type": "address"
            },
            {
              "internalType": "uint256",
              "name": "tokenId",
              "type": "uint256"
            },
            {
              "internalType": "address payable",
              "name": "seller",
              "type": "address"
            },
            {
              "internalType": "address payable",
              "name": "owner",
              "type": "address"
            },
            {
              "internalType": "uint256",
              "name": "price",
              "type": "uint256"
            },
            {
              "internalType": "bool",
              "name": "sold",
              "type": "bool"
            }
          ],
          "internalType": "struct NFTMarket.MarketItem[]",
          "name": "",
          "type": "tuple[]"
        }
      ],
      "stateMutability": "view",
      "type": "function"
    },
    {
      "inputs": [],
      "name": "fetchMyNFTs",
      "outputs": [
        {
          "components": [
            {
              "internalType": "uint256",
              "name": "itemId",
              "type": "uint256"
            },
            {
              "internalType": "address",
              "name": "nftContract",
              "type": "address"
            },
            {
              "internalType": "uint256",
              "name": "tokenId",
              "type": "uint256"
            },
            {
              "internalType": "address payable",
              "name": "seller",
              "type": "address"
            },
            {
              "internalType": "address payable",
              "name": "owner",
              "type": "address"
            },
            {
              "internalType": "uint256",
              "name": "price",
              "type": "uint256"
            },
            {
              "internalType": "bool",
              "name": "sold",
              "type": "bool"
            }
          ],
          "internalType": "struct NFTMarket.MarketItem[]",
          "name": "",
          "type": "tuple[]"
        }
      ],
      "stateMutability": "view",
      "type": "function"
    },
    {
      "inputs": [],
      "name": "getListingPrice",
      "outputs": [
        {
          "internalType": "uint256",
          "name": "",
          "type": "uint256"
        }
      ],
      "stateMutability": "view",
      "type": "function"
    }
  ],
  "bytecode": "0x60806040526658d15e1762800060045534801561001b57600080fd5b50600160008190555033600360006101000a81548173ffffffffffffffffffffffffffffffffffffffff021916908373ffffffffffffffffffffffffffffffffffffffff160217905550611c35806100746000396000f3fe6080604052600436106100705760003560e01c80632a45b2501161004e5780632a45b250146100f657806358eb2df514610133578063c23b139e1461014f578063f064c32e1461016b57610070565b80630f08efe01461007557806312e85585146100a0578063202e3740146100cb575b600080fd5b34801561008157600080fd5b5061008a610196565b604051610097919061183d565b60405180910390f35b3480156100ac57600080fd5b506100b56104c2565b6040516100c291906118fa565b60405180910390f35b3480156100d757600080fd5b506100e06104cc565b6040516100ed919061183d565b60405180910390f35b34801561010257600080fd5b5061011d60048036038101906101189190611511565b61087c565b60405161012a91906118df565b60405180910390f35b61014d600480360381019061014891906114c2565b6109ea565b005b61016960048036038101906101649190611486565b610d4e565b005b34801561017757600080fd5b50610180611007565b60405161018d919061183d565b60405180910390f35b606060006101a460016113b7565b905060006101b260026113b7565b6101bc60016113b7565b6101c691906119b5565b90506000808267ffffffffffffffff81111561020b577f4e487b7100000000000000000000000000000000000000000000000000000000600052604160045260246000fd5b60405190808252806020026020018201604052801561024457816020015b6102316113db565b8152602001906001900390816102295790505b50905060005b848110156104b757600073ffffffffffffffffffffffffffffffffffffffff166005600060018461027b919061195f565b815260200190815260200160002060040160009054906101000a900473ffffffffffffffffffffffffffffffffffffffff1673ffffffffffffffffffffffffffffffffffffffff1614156104a4576000600560006001846102dc919061195f565b81526020019081526020016000206000015490506000600560008381526020019081526020016000209050806040518060e0016040529081600082015481526020016001820160009054906101000a900473ffffffffffffffffffffffffffffffffffffffff1673ffffffffffffffffffffffffffffffffffffffff1673ffffffffffffffffffffffffffffffffffffffff168152602001600282015481526020016003820160009054906101000a900473ffffffffffffffffffffffffffffffffffffffff1673ffffffffffffffffffffffffffffffffffffffff1673ffffffffffffffffffffffffffffffffffffffff1681526020016004820160009054906101000a900473ffffffffffffffffffffffffffffffffffffffff1673ffffffffffffffffffffffffffffffffffffffff1673ffffffffffffffffffffffffffffffffffffffff168152602001600582015481526020016006820160009054906101000a900460ff161515151581525050848681518110610487577f4e487b7100000000000000000000000000000000000000000000000000000000600052603260045260246000fd5b602002602001018190525060018561049f919061195f565b945050505b80806104af90611a43565b91505061024a565b508094505050505090565b6000600454905090565b606060006104da60016113b7565b905060008060005b83811015610583573373ffffffffffffffffffffffffffffffffffffffff1660056000600184610512919061195f565b815260200190815260200160002060040160009054906101000a900473ffffffffffffffffffffffffffffffffffffffff1673ffffffffffffffffffffffffffffffffffffffff1614156105705760018361056d919061195f565b92505b808061057b90611a43565b9150506104e2565b5060008267ffffffffffffffff8111156105c6577f4e487b7100000000000000000000000000000000000000000000000000000000600052604160045260246000fd5b6040519080825280602002602001820160405280156105ff57816020015b6105ec6113db565b8152602001906001900390816105e45790505b50905060005b84811015610871573373ffffffffffffffffffffffffffffffffffffffff1660056000600184610635919061195f565b815260200190815260200160002060040160009054906101000a900473ffffffffffffffffffffffffffffffffffffffff1673ffffffffffffffffffffffffffffffffffffffff16141561085e57600060056000600184610696919061195f565b81526020019081526020016000206000015490506000600560008381526020019081526020016000209050806040518060e0016040529081600082015481526020016001820160009054906101000a900473ffffffffffffffffffffffffffffffffffffffff1673ffffffffffffffffffffffffffffffffffffffff1673ffffffffffffffffffffffffffffffffffffffff168152602001600282015481526020016003820160009054906101000a900473ffffffffffffffffffffffffffffffffffffffff1673ffffffffffffffffffffffffffffffffffffffff1673ffffffffffffffffffffffffffffffffffffffff1681526020016004820160009054906101000a900473ffffffffffffffffffffffffffffffffffffffff1673ffffffffffffffffffffffffffffffffffffffff1673ffffffffffffffffffffffffffffffffffffffff168152602001600582015481526020016006820160009054906101000a900460ff161515151581525050848681518110610841577f4e487b7100000000000000000000000000000000000000000000000000000000600052603260045260246000fd5b6020026020010181905250600185610859919061195f565b945050505b808061086990611a43565b915050610605565b508094505050505090565b6108846113db565b6000600560008481526020019081526020016000206040518060e0016040529081600082015481526020016001820160009054906101000a900473ffffffffffffffffffffffffffffffffffffffff1673ffffffffffffffffffffffffffffffffffffffff1673ffffffffffffffffffffffffffffffffffffffff168152602001600282015481526020016003820160009054906101000a900473ffffffffffffffffffffffffffffffffffffffff1673ffffffffffffffffffffffffffffffffffffffff1673ffffffffffffffffffffffffffffffffffffffff1681526020016004820160009054906101000a900473ffffffffffffffffffffffffffffffffffffffff1673ffffffffffffffffffffffffffffffffffffffff1673ffffffffffffffffffffffffffffffffffffffff168152602001600582015481526020016006820160009054906101000a900460ff161515151581525050905080915050919050565b60026000541415610a30576040517f08c379a0000000000000000000000000000000000000000000000000000000008152600401610a279061189f565b60405180910390fd5b600260008190555060008111610a7b576040517f08c379a0000000000000000000000000000000000000000000000000000000008152600401610a72906118bf565b60405180910390fd5b6004543414610abf576040517f08c379a0000000000000000000000000000000000000000000000000000000008152600401610ab69061187f565b60405180910390fd5b610ac960016113c5565b6000610ad560016113b7565b90506040518060e001604052808281526020018573ffffffffffffffffffffffffffffffffffffffff1681526020018481526020013373ffffffffffffffffffffffffffffffffffffffff168152602001600073ffffffffffffffffffffffffffffffffffffffff16815260200183815260200160001515815250600560008381526020019081526020016000206000820151816000015560208201518160010160006101000a81548173ffffffffffffffffffffffffffffffffffffffff021916908373ffffffffffffffffffffffffffffffffffffffff1602179055506040820151816002015560608201518160030160006101000a81548173ffffffffffffffffffffffffffffffffffffffff021916908373ffffffffffffffffffffffffffffffffffffffff16021790555060808201518160040160006101000a81548173ffffffffffffffffffffffffffffffffffffffff021916908373ffffffffffffffffffffffffffffffffffffffff16021790555060a0820151816005015560c08201518160060160006101000a81548160ff0219169083151502179055509050508373ffffffffffffffffffffffffffffffffffffffff166323b872dd3330866040518463ffffffff1660e01b8152600401610cb6939291906117c1565b600060405180830381600087803b158015610cd057600080fd5b505af1158015610ce4573d6000803e3d6000fd5b50505050828473ffffffffffffffffffffffffffffffffffffffff16827f045dfa01dcba2b36aba1d3dc4a874f4b0c5d2fbeb8d2c4b34a7d88c8d8f929d1336000876000604051610d3894939291906117f8565b60405180910390a4506001600081905550505050565b60026000541415610d94576040517f08c379a0000000000000000000000000000000000000000000000000000000008152600401610d8b9061189f565b60405180910390fd5b6002600081905550600060056000838152602001908152602001600020600501549050600060056000848152602001908152602001600020600201549050813414610e14576040517f08c379a0000000000000000000000000000000000000000000000000000000008152600401610e0b9061185f565b60405180910390fd5b6005600084815260200190815260200160002060030160009054906101000a900473ffffffffffffffffffffffffffffffffffffffff1673ffffffffffffffffffffffffffffffffffffffff166108fc349081150290604051600060405180830381858888f19350505050158015610e90573d6000803e3d6000fd5b508373ffffffffffffffffffffffffffffffffffffffff166323b872dd3033846040518463ffffffff1660e01b8152600401610ece939291906117c1565b600060405180830381600087803b158015610ee857600080fd5b505af1158015610efc573d6000803e3d6000fd5b50505050336005600085815260200190815260200160002060040160006101000a81548173ffffffffffffffffffffffffffffffffffffffff021916908373ffffffffffffffffffffffffffffffffffffffff16021790555060016005600085815260200190815260200160002060060160006101000a81548160ff021916908315150217905550610f8e60026113c5565b600360009054906101000a900473ffffffffffffffffffffffffffffffffffffffff1673ffffffffffffffffffffffffffffffffffffffff166108fc6004549081150290604051600060405180830381858888f19350505050158015610ff8573d6000803e3d6000fd5b50505060016000819055505050565b6060600061101560016113b7565b905060008060005b838110156110be573373ffffffffffffffffffffffffffffffffffffffff166005600060018461104d919061195f565b815260200190815260200160002060030160009054906101000a900473ffffffffffffffffffffffffffffffffffffffff1673ffffffffffffffffffffffffffffffffffffffff1614156110ab576001836110a8919061195f565b92505b80806110b690611a43565b91505061101d565b5060008267ffffffffffffffff811115611101577f4e487b7100000000000000000000000000000000000000000000000000000000600052604160045260246000fd5b60405190808252806020026020018201604052801561113a57816020015b6111276113db565b81526020019060019003908161111f5790505b50905060005b848110156113ac573373ffffffffffffffffffffffffffffffffffffffff1660056000600184611170919061195f565b815260200190815260200160002060030160009054906101000a900473ffffffffffffffffffffffffffffffffffffffff1673ffffffffffffffffffffffffffffffffffffffff161415611399576000600560006001846111d1919061195f565b81526020019081526020016000206000015490506000600560008381526020019081526020016000209050806040518060e0016040529081600082015481526020016001820160009054906101000a900473ffffffffffffffffffffffffffffffffffffffff1673ffffffffffffffffffffffffffffffffffffffff1673ffffffffffffffffffffffffffffffffffffffff168152602001600282015481526020016003820160009054906101000a900473ffffffffffffffffffffffffffffffffffffffff1673ffffffffffffffffffffffffffffffffffffffff1673ffffffffffffffffffffffffffffffffffffffff1681526020016004820160009054906101000a900473ffffffffffffffffffffffffffffffffffffffff1673ffffffffffffffffffffffffffffffffffffffff1673ffffffffffffffffffffffffffffffffffffffff168152602001600582015481526020016006820160009054906101000a900460ff16151515158152505084868151811061137c577f4e487b7100000000000000000000000000000000000000000000000000000000600052603260045260246000fd5b6020026020010181905250600185611394919061195f565b945050505b80806113a490611a43565b915050611140565b508094505050505090565b600081600001549050919050565b6001816000016000828254019250508190555050565b6040518060e0016040528060008152602001600073ffffffffffffffffffffffffffffffffffffffff16815260200160008152602001600073ffffffffffffffffffffffffffffffffffffffff168152602001600073ffffffffffffffffffffffffffffffffffffffff168152602001600081526020016000151581525090565b60008135905061146b81611bd1565b92915050565b60008135905061148081611be8565b92915050565b6000806040838503121561149957600080fd5b60006114a78582860161145c565b92505060206114b885828601611471565b9150509250929050565b6000806000606084860312156114d757600080fd5b60006114e58682870161145c565b93505060206114f686828701611471565b925050604061150786828701611471565b9150509250925092565b60006020828403121561152357600080fd5b600061153184828501611471565b91505092915050565b60006115468383611687565b60e08301905092915050565b61155b816119fb565b82525050565b61156a816119e9565b82525050565b611579816119e9565b82525050565b600061158a82611925565b611594818561193d565b935061159f83611915565b8060005b838110156115d05781516115b7888261153a565b97506115c283611930565b9250506001810190506115a3565b5085935050505092915050565b6115e681611a0d565b82525050565b6115f581611a0d565b82525050565b600061160860418361194e565b915061161382611abb565b606082019050919050565b600061162b60248361194e565b915061163682611b30565b604082019050919050565b600061164e601f8361194e565b915061165982611b7f565b602082019050919050565b6000611671601c8361194e565b915061167c82611ba8565b602082019050919050565b60e08201600082015161169d60008501826117a3565b5060208201516116b06020850182611561565b5060408201516116c360408501826117a3565b5060608201516116d66060850182611552565b5060808201516116e96080850182611552565b5060a08201516116fc60a08501826117a3565b5060c082015161170f60c08501826115dd565b50505050565b60e08201600082015161172b60008501826117a3565b50602082015161173e6020850182611561565b50604082015161175160408501826117a3565b5060608201516117646060850182611552565b5060808201516117776080850182611552565b5060a082015161178a60a08501826117a3565b5060c082015161179d60c08501826115dd565b50505050565b6117ac81611a39565b82525050565b6117bb81611a39565b82525050565b60006060820190506117d66000830186611570565b6117e36020830185611570565b6117f060408301846117b2565b949350505050565b600060808201905061180d6000830187611570565b61181a6020830186611570565b61182760408301856117b2565b61183460608301846115ec565b95945050505050565b60006020820190508181036000830152611857818461157f565b905092915050565b60006020820190508181036000830152611878816115fb565b9050919050565b600060208201905081810360008301526118988161161e565b9050919050565b600060208201905081810360008301526118b881611641565b9050919050565b600060208201905081810360008301526118d881611664565b9050919050565b600060e0820190506118f46000830184611715565b92915050565b600060208201905061190f60008301846117b2565b92915050565b6000819050602082019050919050565b600081519050919050565b6000602082019050919050565b600082825260208201905092915050565b600082825260208201905092915050565b600061196a82611a39565b915061197583611a39565b9250827fffffffffffffffffffffffffffffffffffffffffffffffffffffffffffffffff038211156119aa576119a9611a8c565b5b828201905092915050565b60006119c082611a39565b91506119cb83611a39565b9250828210156119de576119dd611a8c565b5b828203905092915050565b60006119f482611a19565b9050919050565b6000611a0682611a19565b9050919050565b60008115159050919050565b600073ffffffffffffffffffffffffffffffffffffffff82169050919050565b6000819050919050565b6000611a4e82611a39565b91507fffffffffffffffffffffffffffffffffffffffffffffffffffffffffffffffff821415611a8157611a80611a8c565b5b600182019050919050565b7f4e487b7100000000000000000000000000000000000000000000000000000000600052601160045260246000fd5b7f506c65617365207375626d6974207468652061736b696e67207072696365206960008201527f6e206f7264657220746f20636f6d706c6574652074686520707572636861736560208201527f2e00000000000000000000000000000000000000000000000000000000000000604082015250565b7f5072696365206d75737420626520657175616c20746f206c697374696e67207060008201527f7269636500000000000000000000000000000000000000000000000000000000602082015250565b7f5265656e7472616e637947756172643a207265656e7472616e742063616c6c00600082015250565b7f5072696365206d757374206265206174206c6561737420312077656900000000600082015250565b611bda816119e9565b8114611be557600080fd5b50565b611bf181611a39565b8114611bfc57600080fd5b5056fea2646970667358221220a8ad95a1b6f1c3307ba1a0d965020eca15e7d983431523f34505c6f5854b953464736f6c63430008040033",
  "linkReferences": {},
  "deployedLinkReferences": {}
}